:100000000C94AB040C94021B0C94D71A0C94AC1AED
:100010000C94811A0C94561A0C942B1A0C94001AF6
:100020000C94D5190C94DC040C94DC040C94DC04C2
:100030000C94DC040C942D1B0C94DC040C94DC0458
:100040000C94DC040C94DC040C94DC040C94DC04B0
:100050000C94DC040C94DC040C94DC040C948B19DC
:100060000C94DC040C9455190C942B190C94DC049E
:100070000C94DC040C94DC040C94DC040C94DC0480
:100080000C94DC040C94DC040C94DC040C94DC0470
:100090000C94DC040C94DC040C94DC040C94561BCF
:1000A0000C94DC040C94DC040C94DC040C94DC0450
:1000B0000C94DC040C94DC040C94DC040C94DC0440
:1000C0000C94DC040C94DC040C94DC040C94DC0430
:1000D0000C94DC040C94DC040C94DC040C94DC0420
:1000E0000C94DC040C944D160C947A1C0C94770A36
:1000F0000C94820C0C9424250C9438250C94D91360
:100100000C94D2060C94F6240C94ED060C942F0952
:100110000C946F250C94C6050C94A6120C94910AAD
:100120000C94B4060C9451250C94D5060C945B25C4
:100130000C94F3060C946C050C9423050C94122576
:100140000C9405070C947C120C94CE060C94DC07DE
:100150000C94E5060C94E7240C9400250C943005CF
:100160000C9479250C940A250C942D050C94190CEB
:100170000C94F7060C94EC240C94160C0C9472124C
:100180000C94670A0C9426130C9447250C94DB06F8
:100190000C94C6060C9465250C94DF060C942E0571
:1001A0000C94D1150C94BE0A0C947A120C94CA06C5
:1001B0000C94AF060C942E250C942E090C948005FB
:1001C0000C941A250C94E0240C94FB060C942E0637
:1001D0000C94680A0C9478120C948E050C948A0A7C
:1001E0000C94DE160C94E9060C942F050C945D0516
:1001F0000C940107000020410000C84200401C464A
:1002000020BCBE4CCA1B0E5AAEC59D74CDCCCC3D95
:100210000AD7233C17B7D13877CC2B329595E624F3
:100220001FB14F0A5B534E434B5D202D2D2D2D2DBD
:100230002D2D2D2D2D2D2D2D2D2D2D2D2D2D2D2DEE
:100240002D2D2D2D2D2D2D2D2D2D2D2D2D2D2D000B
:100250005B534E434B5D20556C747261736F6E69D6
:10026000632073656E736F72202848432D5352309C
:100270003429204F4B21005B534E434B5D20556C7E
:10028000747261736F6E69632073656E736F722031
:100290002848432D5352303429204552524F522181
:1002A000005B534E434B5D204C6967687420696E58
:1002B00074656E736974792073656E736F7220282C
:1002C00054534C3235363129204F4B21005B534E6D
:1002D000434B5D204C6967687420696E74656E736A
:1002E0006974792073656E736F72202854534C3291
:1002F00035363129204552524F5221005B534E432F
:100300004B5D2048756D69646974792073656E73FF
:100310006F722028444854323229204552524F529D
:1003200021005B534E434B5D2048756D69646974D1
:10033000792073656E736F722028444854323229D5
:10034000204F4B21005B534E434B5D2054656D7035
:10035000657261747572652073656E736F722028A3
:10036000444854323229204F4B21005B534E434BBB
:100370005D2054656D70657261747572652073657A
:100380006E736F72202844485432322920455252ED
:100390004F5221005B534E434B5D20436865636BB6
:1003A000696E672073656E736F72732E2E2E005BFD
:1003B000534E49465D202D2D2D2D2D2D2D2D2D2DCE
:1003C0002D2D2D2D2D2D2D2D2D2D2D2D2D2D2D2D5D
:1003D0002D2D2D2D2D2D2D2D2D2D0025005B534E3A
:1003E00049465D205265736F6C7574696F6E3A2073
:1003F000200025005B534E49465D204D696E205616
:10040000616C75653A2020200025005B534E4946FB
:100410005D204D61782056616C75653A2020200082
:100420005B534E49465D20556E69717565204944A0
:100430003A202020005B534E49465D204472697685
:100440006572205665723A2020005B534E49465D26
:100450002053656E736F7220547970653A20005B8B
:10046000534E49465D2048756D696469747920531F
:10047000656E736F72005B534E49465D202D2D2DC6
:100480002D2D2D2D2D2D2D2D2D2D2D2D2D2D2D2D9C
:100490002D2D2D2D2D2D2D2D2D2D2D2D2D2D2D2D8C
:1004A0002D00C2B043005B534E49465D2052657338
:1004B0006F6C7574696F6E3A202000C2B043005BA8
:1004C000534E49465D204D696E2056616C75653A04
:1004D00020202000C2B043005B534E49465D204DB2
:1004E00061782056616C75653A202020005B534E80
:1004F00049465D20556E697175652049443A202052
:1005000020005B534E49465D204472697665722037
:100510005665723A2020005B534E49465D20536574
:100520006E736F7220547970653A20005B534E49A8
:10053000465D2054656D70657261747572652053F7
:10054000656E736F72005B534E49465D202D2D2DF5
:100550002D2D2D2D2D2D2D2D2D2D2D2D2D2D2D2DCB
:100560002D2D2D2D2D2D2D2D2D2D2D2D2D2D2D2DBB
:100570002D005B534E49465D205265736F6C757458
:10058000696F6E3A202020005B534E49465D204D36
:10059000696E2056616C75653A20202020005B53FF
:1005A0004E49465D204D61782056616C75653A2054
:1005B000202020005B534E49465D20556E697175C1
:1005C000652049443A20202020005B534E49465D77
:1005D00020447269766572205665723A20202000A8
:1005E0005B534E49465D2053656E736F723A20200F
:1005F0002020202020005B534E49465D204C696737
:10060000687420496E74656E736974792053656EE1
:10061000736F72005B534E49465D202D2D2D2D2D9D
:100620002D2D2D2D2D2D2D2D2D2D2D2D2D2D2D2DFA
:100630002D2D2D2D2D2D2D2D2D2D2D2D2D2D2D0017
:100640005B5741524E5D204A534F4E20706172738A
:100650006572206572726F723A20005B434F4D44A1
:100660005D20506C656173652073656E64207468ED
:10067000652073657474696E677321005B434F4D29
:10068000445D20506C656173652073656E642074F1
:1006900068652073657474696E677321005B494EE9
:1006A000464F5D202D20343A20436F6D6D616E649E
:1006B00020666F722041726475696E6F20746F20BE
:1006C000636F727265637420746865206167726F0E
:1006D000636C696D61746520706172616D657465CC
:1006E00072732E005B494E464F5D202D20333A2019
:1006F000436F6D6D616E6420666F72204172647528
:10070000696E6F20746F207475726E206F6E206F2B
:1007100072206F6666207468652067726F777468F0
:10072000206C696768742E005B494E464F5D202D32
:1007300020323A20436F6D6D616E6420666F7220C7
:1007400041726475696E6F20746F2073656E6420EA
:100750007468652061637475616C206167726F6392
:100760006C696D61746520706172616D657465722C
:10077000732E005B494E464F5D202D20313A2043B9
:100780006F6D6D616E6420666F7220417264756971
:100790006E6F20746F207570646174652074686575
:1007A000206167726F636C696D617465207061723E
:1007B000616D657465722073657474696E67732EFC
:1007C000005B494E464F5D2054686520736D617231
:1007D000746661726D65722041726475696E6F2016
:1007E0007375622D73797374656D206973207265FA
:1007F00061647920746F2065786563757465207411
:1008000068652073706563696669656420636F6DF0
:100810006D616E64732E2E2E005B494E464F5D2037
:1008200050726F6772616D20737461727465642EAB
:100830002E2E0000000A0B02090C0D0E08070304FF
:1008400001000000000000000000000000000000A7
:100850000000000000000000000000000000001286
:100860001110000000000000000000000000000067
:10087000000000000000000000000021002400270C
:10088000002A002D003000330001010000040107A0
:10089000010A01000020002300260029002C002F5F
:1008A00000320000010000030106010901000022DE
:1008B00000250028002B002E00310034000201002A
:1008C00000050108010B01050505050705080808D5
:1008D00008020202020A0A080804040404010101D1
:1008E00001010101010303030303030303040707D9
:1008F000070C0C0C0C0C0C0C0C0202020206060677
:1009000006060606060B0B0B0B0B0B0B0B0102105E
:100910002020080810204010204080020102010819
:1009200004020101020408102040808040201008C9
:100930000402018004020180402010080402010822
:100940000402010102040810204080010204081082
:10095000204080007A1C11241FBECFEFD1E2DEBF01
:10096000CDBF00E00CBF14E0A0E0B2E0E2EFF5E59F
:1009700000E00BBF02C007900D92A435B107D9F774
:1009800026E0A4E5B4E001C01D92A137B207E1F76B
:1009900014E0CBEAD4E000E006C021970109802FE3
:1009A000FE010E94C128CA3AD10780E00807A9F7D2
:1009B0000E94211D0C94F72A0C940000DC0170E0C9
:1009C000FB01E35FF64FE4911496EC93149750E02B
:1009D000FA01E35FF64FE4911596EC93159769538E
:1009E000774FFB018491E82FF0E0EE0FFF1FE355F6
:1009F000F74F8591949117969C938E931697FA01D1
:100A0000E953F74FE491F0E0EE0FFF1FED56F74F7B
:100A10008591949119969C938E931897FB016491FC
:100A2000E62FF0E0EE0FFF1FE758F74F8591949106
:100A30001B969C938E931A9781EC9CE21D969C9337
:100A40008E931C97089580915804909159040196B3
:100A50009093590480935804089508950895089533
:100A6000AF92BF92CF92DF92EF92FF920F931F93BC
:100A7000CF93DF936C017B018B01040F151FEB01FA
:100A80005E01AE18BF08C017D10759F06991D601B1
:100A9000ED91FC910190F081E02DC6011995892B13
:100AA00079F7C501DF91CF911F910F91FF90EF90E2
:100AB000DF90CF90BF90AF900895FC01538D448D8F
:100AC000252F30E0842F90E0821B930B541710F0F9
:100AD000CF96089501970895FC01918D828D981706
:100AE00061F0A28DAE0FBF2FB11D5D968C91928DDE
:100AF0009F5F9F73928F90E008958FEF9FEF08950F
:100B0000FC01918D828D981731F0828DE80FF11DD7
:100B1000858D90E008958FEF9FEF0895FC01918DF2
:100B2000228D892F90E0805C9F4F821B91098F73EB
:100B30009927089582E395E00E948E0521E0892B94
:100B400009F420E0822F0895FC01A48DA80FB92F8D
:100B5000B11DA35ABF4F2C91848D90E001968F73E5
:100B60009927848FA689B7892C93A089B1898C9104
:100B7000837080648C93938D848D981306C0028853
:100B8000F389E02D80818F7D80830895EF92FF921D
:100B90000F931F93CF93DF93EC0181E0888F9B8DA0
:100BA0008C8D98131AC0E889F989808185FF15C05A
:100BB0009FB7F894EE89FF896083E889F98980817D
:100BC0008370806480839FBF81E090E0DF91CF914C
:100BD0001F910F91FF90EF900895F62E0B8D10E06E
:100BE0000F5F1F4F0F731127E02E8C8D8E110CC0DD
:100BF0000FB607FCFACFE889F989808185FFF5CF28
:100C0000CE010E94A405F1CFEB8DEC0FFD2FF11D5D
:100C1000E35AFF4FF0829FB7F8940B8FEA89FB8964
:100C200080818062CFCF0F931F93CF93DF938C018E
:100C3000D0E0C0E0F801EC0FFD1F6491662341F0A5
:100C400082E395E00E94C605892B11F02196F2CF30
:100C5000CE01DF91CF911F910F910895CF93DF9334
:100C6000EC01888D8823B9F0AA89BB89E889F989C4
:100C70008C9185FD03C0808186FD0DC00FB607FCF9
:100C8000F7CF8C9185FFF2CF808185FFEDCFCE012C
:100C90000E94A405E9CFDF91CF91089580E090E014
:100CA000892B29F00E949A0581110E94000080E0A2
:100CB00090E0892B49F080E090E0892B29F00E9498
:100CC000000081110E94000080E090E0892B49F033
:100CD00080E090E0892B29F00E94000081110E94A1
:100CE000000080E090E0892B49F080E090E0892BC3
:100CF00029F00E94000081110C9400000895282F13
:100D000030E0F901ED5CF74F9491F901E35FF64FA4
:100D100044912953374FF9012491222309F435C016
:100D2000992311F191509231F8F4E92FF0E08827DE
:100D3000E356F94F8F4F0C94C128CE06D206AF066A
:100D4000C606CA06B406D506DB06DF06E506E906D2
:100D5000ED06F306F706B406FB06010705078091CA
:100D600080008F7780938000E22FF0E0EE0FFF1F6E
:100D7000E355F74FA591B4918FB7F894EC916111B9
:100D800048C040954E234C938FBF089580918000BA
:100D90008F7DE8CF80918000877FE4CF84B58F7707
:100DA00084BDE2CF84B58F7DFBCF8091B0008F777B
:100DB0008093B000D9CF8091B0008F7DF9CF809122
:100DC00090008F7780939000CFCF809190008F7D9F
:100DD000F9CF80919000877FF5CF8091A0008F7729
:100DE0008093A000C1CF8091A0008F7DF9CF80912A
:100DF000A000877FF5CF809120018F77809320011D
:100E0000B3CF809120018F7DF9CF80912001877F22
:100E1000F5CF4E2BB8CFCF93DF9390E0FC01E35F8B
:100E2000F64F24918953974FFC0184918823C9F090
:100E300090E0880F991FFC01E758F74FA591B491F6
:100E4000FC01E355F74FC591D49161110DC09FB7D7
:100E5000F8948C91209582238C9388812823288371
:100E60009FBFDF91CF910895623051F49FB7F894FE
:100E70003C91822F809583238C93E8812E2BEFCF9A
:100E80008FB7F894EC912E2B2C938FBFEACF3FB7FE
:100E9000F8948091C5049091C604A091C704B091C4
:100EA000C80426B5A89B05C02F3F19F00196A11DC7
:100EB000B11D3FBFBA2FA92F982F8827BC01CD01A4
:100EC000620F711D811D911D42E0660F771F881F03
:100ED000991F4A95D1F708958F929F92AF92BF9232
:100EE000CF92DF92EF92FF924B015C010E94470785
:100EF0006B017C010E9447076C197D098E099F09CF
:100F0000683E734081059105A8F321E0821A91089B
:100F1000A108B10888EEC80E83E0D81EE11CF11CC0
:100F200081149104A104B10429F7FF90EF90DF90A0
:100F3000CF90BF90AF909F908F9008952FB7F89467
:100F40006091C1047091C2048091C3049091C40463
:100F50002FBF08950F931F930E949E0760933A0539
:100F600070933B0580933C0590933D0582E395E0AB
:100F70000E946C0597FF1DC00E949E0700913A05D4
:100F800010913B0520913C0530913D05601B710B94
:100F9000820B930B0091360510913705209138058F
:100FA000309139056017710782079307F8F28FEFC8
:100FB0009FEF1F910F9108950895FC0183898B3055
:100FC00051F480E492E4AFE0B0E0FB0184A395A388
:100FD000A6A3B7A3089580E894E8AEE1B0E0F5CF0A
:100FE000CF92DF92EF92FF92CF93DF93DC011796BF
:100FF000CC911797D0E06111DC2F18962C9118979F
:1010000030E0220F331F2D56374F50E040E0F901FA
:1010100085919491FC01F080BA0190E080E0EF2D81
:10102000EC23ED1310C04F5F5F4F1D96CD90DD9008
:10103000ED90FC9050976C157D058E059F0538F35B
:101040006FEF7FEFCB01DF91CF91FF90EF90DF90BB
:10105000CF9008958F929F92AF92BF92CF92DF92DE
:10106000EF92FF920F931F93CF93DF93CDB7DEB72D
:10107000C054D1400FB6F894DEBF0FBECDBF8C0177
:101080000E949E07F801C184D284E384F4849B010A
:10109000AC012C193D094E095F0969017A0130ED57
:1010A000C31637E0D306E104F104A8F48189C05CDB
:1010B000DE4F0FB6F894DEBF0FBECDBFDF91CF91EC
:1010C0001F910F91FF90EF90DF90CF90BF90AF9066
:1010D0009F908F9008956187728783879487148289
:1010E000138212821182108262E085810E940B07B6
:1010F00061E070E080E090E00E946C0761E0F80140
:1011000085810E940B0760E0F80185810E947F06BF
:10111000F80186818551823028F58BE291E10197B3
:10112000F1F762E0F80185810E940B07F8018289DE
:1011300090E08230910538F0880F991F880F991F31
:1011400005970197F1F7F89460E0C8010E94F00755
:101150006F3F7F4F8F4F9F4F61F4F801118A789452
:1011600080E0A5CF64E170E080E090E00E946C0731
:10117000D8CF61E0C8010E94F0076F3F7F4F8F4FCB
:101180009F4F59F39E012F5F3F4F79015E013FEB67
:10119000A31A3EEFB30A670160E0C8010E94F0079E
:1011A000F601608371838283938361E0C8010E94AA
:1011B000F007F6016483758386839783F8E0CF0E8A
:1011C000D11CCA14DB0441F7789430E020E0F70129
:1011D00080809180A280B38044815581668177812F
:1011E000FFEF8F169F06AF06BF0631F04F3F8FEF20
:1011F00058076807780719F4F801118AB1CFF90187
:1012000083E0F595E7958A95E1F7E00FF11F80817E
:10121000880F84169506A606B706F0F080832F5F28
:101220003F4FF8E0EF0EF11C2832310581F6F8014E
:10123000448120818181280F3327331F8281280F29
:10124000311D8381820F932F911D9927481719060D
:1012500099F681E0818B2BCF8160E0CF0895FC016E
:101260006783089520919B04260F3327331F213273
:101270003105ECF420912C05FC0190E080E0243055
:1012800069F082E00895A0919B042191AC0145583A
:101290005B4FA40FB52FB11D2C930196861798F3C1
:1012A00080919B04680F60939B0480E0089581E027
:1012B000089510922C0581E080930B05109206058D
:1012C00061E084E10E947F0661E085E10E947F0683
:1012D000E9EBF0E080818E7F808380818D7F808349
:1012E00088E48093B80085E48093BC000895CF9390
:1012F000DF9391E090937A048823B9F0C091B8000D
:10130000D091BA008091BC008A7B8093BC0060E0E1
:1013100084E10E947F0660E085E10E947F060E94D2
:101320005909D093BA00C093B800DF91CF910895C6
:10133000CF92DF92EF92FF920F931F93CF93DF93A1
:10134000D82FC62F613208F098C00E9447076B0162
:101350007C0180912C0581116BC081E080932C056C
:1013600080930B059FEF90930A05109209059C0F3F
:10137000909308058093070580910705DD0FD82B12
:10138000D093070580910605813009F078C010924E
:1013900006050E9447076B017C0180910705809339
:1013A000BB0080912E0590912F05A0913005B09142
:1013B0003105892B8A2B8B2BA1F00E9447070091C6
:1013C0002E0510912F0520913005309131056C19B3
:1013D0007D098E099F09061717072807390708F4A2
:1013E00048C08091BC0083FDD8CF85EC8093BC00C1
:1013F0000E9447076B017C0180912C05813009F424
:1014000040C0809109058C1710F4C0910905E6EEE3
:10141000F4E0ACE0B5E080E08C1355C08C2FDF9198
:10142000CF911F910F91FF90EF90DF90CF90089593
:1014300080912E0590912F05A0913005B091310536
:10144000892B8A2B8B2B09F484CF0E9447070091AC
:101450002E0510912F0520913005309131056C1922
:101460007D098E099F09061717072807390708F015
:1014700070CF80912D050E947709C0E0CFCF85EE17
:10148000B5CF80912E0590912F05A0913005B09198
:101490003105892B8A2B8B2B09F4AECF0E9447078D
:1014A00000912E0510912F052091300530913105C6
:1014B0006C197D098E099F09061717072807390738
:1014C00008F09ACFD6CF91919D938F5FA5CF0895C5
:1014D000E091D0048091CF04E81730F4F0E0E45FAD
:1014E000FA4F808190E008958FEF9FEF08959091DB
:1014F000D0048091CF042FEF3FEF981748F4E92FE5
:10150000F0E0E45FFA4F208130E09F5F9093D004D9
:10151000C90108958091CF049091D004891B990B43
:101520000895CF92DF92EF92FF920F931F93CF9384
:10153000DF937C01CB018A012091BF04222389F033
:10154000EB016B01C40ED51ECC15DD0569F0699168
:10155000D701ED91FC910190F081E02DC701199523
:10156000F3CF642F0E943209C801DF91CF911F9100
:101570000F91FF90EF90DF90CF900895CF93DF937E
:101580001F92CDB7DEB769832091BF042223F9F003
:101590002091CD04203258F021E030E0FC0133836B
:1015A000228390E080E00F90DF91CF9108958091A9
:1015B000CE04E82FF0E0E65AFB4F998190838F5FCD
:1015C0008093CE048093CD0481E090E0ECCF61E085
:1015D000CE0101960E943209F7CFCF92DF92EF92AF
:1015E000FF920F931F93CF93DF93D091CD0481E0AF
:1015F000D13208F09CC0C091BE040E9447076B0125
:101600007C0180912C0581116CC082E080932C05B7
:1016100081E080930B058FEF80930A0510920905F6
:10162000D0930805AAE5B4E0E6EEF4E080E0D81334
:101630008DC01092070580910705CC0FC82BC09371
:10164000070580910605813009F084C010920605D7
:101650000E9447076B017C01809107058093BB00C6
:1016600080912E0590912F05A0913005B091310504
:10167000892B8A2B8B2BA1F00E94470700912E0506
:1016800010912F0520913005309131056C197D099D
:101690008E099F09061717072807390708F442C063
:1016A0008091BC0083FDD8CF85EC8093BC000E9464
:1016B00047076B017C0180912C05823009F44CC0F6
:1016C00080910A058F3F09F469C080910A05803234
:1016D00009F466C080910A05803309F463C084E090
:1016E00026C080912E0590912F05A0913005B091D4
:1016F0003105892B8A2B8B2B09F483CF0E94470756
:1017000000912E0510912F05209130053091310563
:101710006C197D098E099F090617170728073907D5
:1017200008F06FCF80912D050E94770985E0109217
:10173000CE041092CD041092BF04DF91CF911F917F
:101740000F91FF90EF90DF90CF9008959D9191932E
:101750008F5F6DCF85EEA9CF80912E0590912F05DB
:10176000A0913005B0913105892B8A2B8B2B09F480
:10177000A2CF0E94470700912E0510912F052091BE
:101780003005309131056C197D098E099F090617C6
:1017900017072807390708F08ECFC4CF80E0C7CFDE
:1017A00082E0C5CF83E0C3CF1F93CF93DF93EC01DB
:1017B000142F8B819C812D8131E03093BF042093C5
:1017C000BE041092CE041092CD04DC01ED91FC9188
:1017D0000190F081E02D19958B819C81DC01ED91C8
:1017E000FC910190F081E02D612F19958B819C81F6
:1017F000DF91CF911F910C94ED0A40E060E80C94CA
:10180000D40BFC01248131E03093BF042093BE044B
:101810001092CE041092CD048385682B8FEC95E056
:101820000E94BE0A8FEC95E00C94ED0A90E080E0F7
:101830000895089580339CF08A3324F08F3524F086
:101840008B3724F481E0089581344CF08B35D4F348
:1018500093ED980F81E09230B0F380E008958B32E1
:10186000B9F7F0CFFC018685811114C0A185B2853E
:10187000838594852FEF3FEFA817B90730F4CD018A
:101880000196928781872C9130E037FD20E02587F3
:1018900081E08687858508951F93CF93DF93EC01C0
:1018A000162F0E94320C811306C01E8681E0DF9144
:1018B000CF911F91089580E0FACFCF93DF93EC0191
:1018C000CE010E94320C8B303CF489304CF48823DA
:1018D00049F081E0888710C08D3011F08032C9F75F
:1018E0001E86EECF888581110AC081E090E0CF5A34
:1018F000DF4F9983888380E0DF91CF91089582E064
:1019000090E0F5CF0895FC01828193810097C1F0AA
:1019100024813581468157812417350740F0138291
:1019200012820190F081E02D81E080870895A90165
:101930004F5F5F4F55834483820F931FFC01608389
:1019400008959F92AF92BF92CF92DF92EF92FF9253
:101950000F931F93CF93DF9300D01F921F92CDB7A9
:10196000DEB78C010E94320CD82EF8011686F12CBD
:10197000E12C70EFC72EC8010E94320CF8011686C8
:10198000D81609F4C1C0811119C0F801EF5AFF4FF0
:1019900082E090E09183808380E00F900F900F9021
:1019A0000F900F90DF91CF911F910F91FF90EF90CB
:1019B000DF90CF90BF90AF909F9008958C3509F045
:1019C0009EC0C8010E94320C8823F9F2E0EAF2E0DE
:1019D000853709F088C0F801168664E0962EB12C90
:1019E000A12CC8010E94320C882379F281344CF476
:1019F0008053803148F0F801EF5AFF4F83E090E0C8
:101A0000C9CF8F7D8753F5CF54E0AA0CBB1C5A95E4
:101A1000E1F7A82AF80116869A949110E2CFC50141
:101A2000985D8115944020F4750123E0F222A3CF44
:101A3000C5019C5D8115944008F5F3E0BF22C70104
:101A4000982F8827990F990F8A299B29B0E0A0E049
:101A50001196198280389105A105B10598F48A8301
:101A60005E0123E0A20EB11CF50162915F016623C5
:101A700009F481CFC8010E94830CF6CFC501B0E004
:101A8000A0E0E7CF282F2F7320682A8336E0B69591
:101A9000A795979587953A95D1F78032910538F4B7
:101AA000806C8B835E0184E0A80EB11CDDCF282FF3
:101AB0002F7320682B8326E0969587952A95E1F76A
:101AC0008031910538F4806E8C835E01E5E0AE0EC6
:101AD000B11CCACF80688C83CD825E01F6E0AF0E68
:101AE000B11CC2CF32969081992309F484CF891317
:101AF000F9CF8181882309F47ECFF8011686682FFB
:101B0000C8010E94830C37CF60E0C8010E94830C9B
:101B1000F80182819381892B29F4EF5AFF4F84E0E9
:101B200090E038CF81E039CFEF92FF920F931F936F
:101B3000CF93DF93DC01ED90FC90E7012A813B819C
:101B4000E881F981E217F30780F4B901DF01EB01C5
:101B50004991BE018D010F5F1F4F5C91451318C065
:101B6000D8014111F4CF309759F4FC01848195815B
:101B7000820F931FD70113969C938E931297F901AE
:101B8000CF01DF91CF911F910F91FF90EF900895BA
:101B9000FD014191DF014111FBCFD4CF4F925F9204
:101BA0006F927F928F929F92AF92BF92CF92DF926D
:101BB000EF92FF920F931F93CF93DF93EC017B0182
:101BC00088818B32C1F18D32B9F5219611E088817F
:101BD00090ED980F9A3018F08E3209F03AC160E01B
:101BE00070E0CB01FE01219100ED020F0A3030F5CB
:101BF0006A3929E97207820729E1920708F045C08E
:101C0000AAE0B0E09B01AC010E946527802E912CD8
:101C1000B12CA12C2401350140945094609470940F
:101C2000461657066806790680F1680D791D8A1DEB
:101C30009B1DEF01D7CF219610E0C9CF211125C000
:101C4000F701248120781123C1F02A602483608366
:101C5000718382839383812FDF91CF911F910F91A5
:101C6000FF90EF90DF90CF90BF90AF909F908F90BC
:101C70007F906F905F904F900895286024836083D9
:101C800071838283938311E0E6CF00E0EAE08E2E39
:101C9000912CA12CB12C61157105F0E88F079105ED
:101CA00040F0A50194010E947827CA01B9010F5F95
:101CB000F2CFFE01299130ED320F3A3010F40F5F70
:101CC000F8CF2E32F1F4EF012196FE01219620810A
:101CD00050EDD52ED20E29E02D1598F06C3CECEC91
:101CE0007E07ECE08E07910580F7AAE0B0E09B014B
:101CF000AC010E9465276D0D711D811D911D015064
:101D0000E4CF20812F7DD0E0C0E0253409F05DC014
:101D100021812D32D9F53296CC24C394DF01D0E055
:101D2000C0E0202F002E000C330B4AE0B42EFD0142
:101D3000DD9040ED4D0D4A3008F042C0BC9EA00140
:101D4000BD9E500D1124CD2DDD0CDD0BE097C40F91
:101D5000D51FAE01420F531F4732510544F3F7011F
:101D60008481CC20D1F040E050E060E070E81111B7
:101D700003C040E050E0BA0180788C60F7018483B2
:101D800040835183628373831C2D65CF2B3219F0FE
:101D90003196C12CC3CF3296FCCF40E050E060E8D2
:101DA0007FEF111104C040E050E060E87FE78078E9
:101DB0008C60F7018483408351836283738363CF94
:101DC000CC2019F0D195C195D1092081211141C0B4
:101DD000C00FD11D07FDDA950E9427261C161D068F
:101DE00004F500E0C0FF0CC024E0029FF0011124C4
:101DF000EC50FE4F25913591459154910E948826D3
:101E0000D595C7950F5F209769F711119058F70185
:101E1000248120782C602483608371838283938360
:101E200032CFD195C195D10900E0209771F3C0FF61
:101E30000CC024E0029FF0011124E45FFD4F2591C6
:101E40003591459154910E948826D595C7950F5F8D
:101E5000ECCF10E000CFCF93DF9300D01F921F9202
:101E6000CDB7DEB7FC0194819F77963069F030F4EE
:101E7000943000F560E070E0CB010CC09A3091F036
:101E80009C3029F19830B1F7608171818281938112
:101E90000E9427260F900F900F900F900F90DF91C8
:101EA000CF91089560817181828193810E9427265C
:101EB0009058F0CF808191811D82BE016F5F7F4F6E
:101EC0000E94CE0DCE0101960E942B0FE3CF6081C0
:101ED000718182819381DECFCF93DF93DC01EB01AF
:101EE000EC81FD818A819B810896E817F90740F40F
:101EF00081E08887F0E0E0E0CF01DF91CF910895A5
:101F00003897FD83EC833097B9F31296CD91DC912D
:101F10001397209791F0CF018C1B9D0B23E0959593
:101F200087952A95E1F78D831396FC93EE9312978C
:101F30001582148217821682DFCF1196FC93EE93DE
:101F4000F3CFFC0101900020E9F73197AF01481B66
:101F5000590BBC0182E395E00C943005CF93DF93DD
:101F60000E941306EC0181EB92E00E94A10F8C0FFE
:101F70009D1FDF91CF9108958F929F92AF92BF9254
:101F80000F931F93CF93DF93CDB7DEB7A1970FB613
:101F9000F894DEBF0FBECDBF19A2423008F44AE06C
:101FA0008E010F5D1F4F842E912CB12CA12CA50109
:101FB00094010E947827E62FB901CA01EA30F4F4AF
:101FC000E05DD801EE938D01232B242B252B79F78F
:101FD00090E080E0109719F0CD010E94A10FA1962A
:101FE0000FB6F894DEBF0FBECDBFDF91CF911F912A
:101FF0000F91BF90AF909F908F900895E95CE1CFD3
:10200000CF93DF93D0E0C0E0009719F00E94A10FBA
:10201000EC0181EB92E00E94A10F8C0F9D1FDF91DC
:10202000CF9108954F925F926F927F928F929F927D
:10203000AF92BF92CF92DF92EF92FF920F931F93D6
:10204000CF936B017C01742EAC019B010E94BC28D4
:10205000882399F084EB92E0CF911F910F91FF902C
:10206000EF90DF90CF90BF90AF909F908F907F9038
:102070006F905F904F900C94A10F46015701E89428
:10208000B7F82FEF3FEF4FE75FE7C501B4010E94BC
:10209000BC2881110DC02FEF3FEF4FE75FE7C5016F
:1020A000B4010E94222618161CF488EB92E0D4CFCB
:1020B0002FEF3FEF4FE75FE4C701B6010E94B7285B
:1020C00018161CF48CEB92E0C7CF2FEF3FEF4FE7D1
:1020D0005FECC701B6010E94222687FDF3CF20E006
:1020E00030E0A901C701B6010E94222610E000E0FD
:1020F00087FF0AC06DE282E395E00E94C6058C016D
:10210000F7FAF094F7F8F094C0E060E070E080E057
:102110009FE37C1641F020E030E040E251E40E9471
:102120001628CF5FF6CFA70196010E94AA272B01A0
:102130003C010E9488284B015C014AE00E94BC0FD0
:102140007C01E00EF11ECC23C1F1C501B4010E9457
:1021500027269B01AC01C301B2010E94A9274B01B4
:102160005C016EE282E395E00E94C605E80EF91E6E
:10217000C15018F120E030E040E251E4C501B40163
:102180000E9488262B013C010E9488284B01B12C1B
:10219000A12C4AE0C501B4010E94BC0FE80EF91E53
:1021A000C501B4010E9427269B01AC01C301B20105
:1021B0000E94A9274B015C01DBCFC701CF911F9182
:1021C0000F91FF90EF90DF90CF90BF90AF909F90D6
:1021D0008F907F906F905F904F900895CF93DF9393
:1021E00042E00E941210EC0181EB92E00E94A10FEC
:1021F0008C0F9D1FDF91CF910895CF92DF92EF92C8
:10220000FF92CF93DF936B017C01F7FE1FC06DE25D
:1022100082E395E00E94C605EC0166277727CB0193
:102220006C197D098E099F094AE00E94BC0FC80FF6
:10223000D91F81EB92E00E94A10F8C0F9D1FDF91AF
:10224000CF91FF90EF90DF90CF9008954AE00E94E9
:10225000BC0FEC01EECF0F931F93CF93DF93EC01F4
:102260008B819C812D8131E03093BF042093BE048B
:102270001092CE041092CD04DC01ED91FC910190FE
:10228000F081E02D19958B819C810E94ED0A62E01E
:102290008D810E9498091092D0048093CF048B8185
:1022A0009C81DC01ED91FC910284F385E02D199570
:1022B0008C018B819C81DC01ED91FC910284F38582
:1022C000E02D199520E0382FC801822B932BDF9148
:1022D000CF911F910F910895EF92FF920F931F934B
:1022E000CF93DF93EC017B018A0143E060E80E9419
:1022F000D40B88859985009739F0019711F162EC2C
:1023000071E080E090E004C06FE070E080E090E079
:102310000E946C076CEACE010E942B11F701918399
:1023200080836EEACE010E942B11F8019183808395
:10233000CE01DF91CF911F910F91FF90EF900C9400
:10234000FD0B68E770E080E090E0E2CF1F93CF9351
:10235000DF93EC018FEC95E09C838B831092D0048B
:102360001092CF041092CE041092CD040E9459090D
:102370008EE295E09093CC048093CB048FE295E0BD
:102380009093CA048093C9048B819C812D8111E0B4
:102390001093BF042093BE04DC01ED91FC910190E9
:1023A000F081E02D6AE019958B819C810E94ED0AF5
:1023B00061E08D810E9498091092D0048093CF042F
:1023C0008B819C81DC01ED91FC910284F385E02DF1
:1023D0001995857099F41E8368857985CE010E94D0
:1023E00021126A857B85CE010E940012CE010E94D7
:1023F000FD0B81E0DF91CF911F91089580E0FACF2E
:102400000F931F93CF93DF93EC01162F072F8E812D
:10241000811103C0CE010E94A61143E060E8CE0105
:102420000E94D40B4885412B61E8CE010E94D40B59
:102430001A870B87CE01DF91CF911F910F910C94DA
:10244000FD0B0F931F93CF93DF93EC01162F072FF4
:102450008E81811103C0CE010E94A61143E060E885
:10246000CE010E94D40B4A85412B61E8CE010E9427
:10247000D40B18870987CE01DF91CF911F910F915F
:102480000C94FD0B0F931F93CF938C01C62F0E94CA
:10249000010C6C2F6460C8010E94010C6C2F6B7FD3
:1024A000C8010E94010C83EC90E00197F1F7CF91F5
:1024B0001F910F9108950F931F93CF93DF938C017A
:1024C000D62FC42F607F642B0E94421280E1D89FD8
:1024D000B00111246C2BC801DF91CF911F910F9196
:1024E0000C94421241E00E945B1281E090E008955A
:1024F0000C9465290C9465290C9465290F931F93FE
:10250000CF93DF93EC0188819981009759F02A815C
:102510003B812617370730F081E0DF91CF911F9183
:102520000F9108958B016F5F7F4F0E94EE290097F6
:1025300059F0998388831B830A832C813D81232B47
:1025400059F7FC011082E8CF80E0E7CFCF92DF920D
:10255000EF92FF920F931F93CF93DF938C01EB01C8
:10256000FB01349680E2DF011D928A95E9F784E24F
:1025700090E0A0E0B0E088839983AA83BB83F80150
:1025800085819681A781B0858C839D83AE83BF832F
:102590008CE090E0A0E0B0E088879987AA87BB87AD
:1025A0000E949E07688B798B8A8B9B8BD801139630
:1025B0000D911C91C8010E942A08882349F0F80156
:1025C00086818B3028F08D3040F08551823070F15B
:1025D00060E070E080EC9FE71BC0618170E090E0FC
:1025E00080E00E9429262DEC3CEC4CEC5DE30E943F
:1025F00088266B017C01F801608170E090E080E04A
:102600000E9429269B01AC01C701B6010E94AA279E
:102610006C8B7D8B8E8B9F8B81E0DF91CF911F9197
:102620000F91FF90EF90DF90CF90089560817181BE
:1026300076276727762790E080E00E9427262DECFA
:102640003CEC4CEC5DE30E948826E2CF8F929F9297
:10265000AF92BF92EF92FF921F93CF93DF937C01D3
:10266000EB01FB01349680E2DF011D928A95E9F7C8
:1026700084E290E0A0E0B0E088839983AA83BB83E2
:10268000F70185819681A781B0858C839D83AE8378
:10269000BF838DE090E0A0E0B0E088879987AA87AB
:1026A000BB870E949E07688B798B8A8B9B8BD70197
:1026B0001396ED90FC90C7010E942A08882341F0F0
:1026C000F70186818C3009F455C038F48B30E1F085
:1026D00060E070E080EC9FE73EC085518230C0F73B
:1026E0001281612F70E0762F662766277F778381BE
:1026F000682B90E080E00E9427262DEC3CEC4CEC0F
:102700005DE30E94882651C0628170E090E080E025
:102710000E9427264B015C01F701138117FF0AC0B5
:10272000AC019B0160E070E080E89FEB0E94A9276C
:102730004B015C011F70612F70E090E080E00E940F
:1027400029262DEC3CEC4CEC5DE30E948826A5018B
:1027500094010E94AA276C8B7D8B8E8B9F8B81E0CE
:10276000DF91CF911F91FF90EF90BF90AF909F901E
:102770008F9008951281612F70E090E080E00E94B8
:1027800027264B015C01F70163816F7070E090E0D8
:1027900080E00E9429262DEC3CEC4CEC5DE30E948D
:1027A0008826A50194010E94AA2717FFD4CF90582C
:1027B000D2CF4F925F926F927F928F929F92AF9201
:1027C000BF92CF92DF92EF92FF920F931F93CF931E
:1027D000DF9300D000D01F921F92CDB7DEB78C01DF
:1027E0007B01FB01349680E2DF011D928A95E9F7B7
:1027F00084E290E0A0E0B0E0FB0180839183A283BB
:10280000B383F80184859585A685B785FB0184830C
:102810009583A683B78385E090E0A0E0B0E0808751
:102820009187A287B3870E949E07D70150966D9328
:102830007D938D939C935397F8018681811103C0FA
:10284000C8010E94A611D80117968C91179788236A
:1028500009F45DC018968D919C9154E6852E912CBB
:1028600062EFA62E62E1B62E009789F078EC872EF3
:10287000912CE0EAAE2EECE8BE2E019741F034EF49
:10288000832E9924939448E1A42E46EFB42EAE01F2
:102890004F5F5F4FBE016D5F7F4FC8010E946C119B
:1028A0008B819C818815990590F0A816B90640F493
:1028B000F8012285338570E060E02031310579F040
:1028C0009E838D8389819A8198878F8329C0D801BF
:1028D0001A962D913C91232B99F760E170E0C80185
:1028E0000E940012AE014F5F5F4FBE016D5F7F4FD0
:1028F000C8010E946C11AE014F5F5F4FBE016D5F5A
:102900007F4FC8010E946C118B819C81D9CFAE0191
:10291000495F5F4FBE016B5F7F4FC8010E946C1122
:10292000AD81BE81F8018085918524E233E1009775
:1029300039F028E830E98130910511F028EE3DEFBB
:102940002A173B0708F4FEC0CF80D8842C153D051C
:1029500008F4F8C0009709F4C7C027EE422E2FE014
:10296000522E612C712C019729F0412C94E0592EA4
:10297000612C712CF80182859385892B39F4F4E060
:10298000440C551C661C771CFA95D1F7A3019201E3
:102990000E9465274B015C016AE0B694A794979466
:1029A00087946A95D1F7D6010E9465272B013C01D7
:1029B000EAE07694679457944794EA95D1F720E03B
:1029C00030E0A90181149104A104B10431F066271B
:1029D0007C7FA50194010E947827DA01C901019644
:1029E000A11DB11DB695A795979587958134910541
:1029F000A105B10508F47FC081389105A105B10595
:102A000008F47EC0813C9105A105B10508F47DC0A4
:102A10008130F1E09F07A105B10508F47BC089333F
:102A200021E09207A105B10508F479C08B39E1E0F6
:102A30009E07A105B10508F477C08B399240A10526
:102A4000B10508F476C0F0E0E0E0B0E0A0E0A50158
:102A500094010E9465274B015C01DF01A3019201F3
:102A60000E946527681579058A059B0508F066C0F0
:102A7000861A970AA80AB90A20E2920EA11CB11C74
:102A8000C501B4012EE096958795779567952A95AF
:102A9000D1F70E942726D70154966D937D938D938D
:102AA0009C93579711E020E030E040E857E40E9403
:102AB0002226811101C010E0812F28960FB6F894CC
:102AC000DEBF0FBECDBFDF91CF911F910F91FF9061
:102AD000EF90DF90CF90BF90AF909F908F907F90BE
:102AE0006F905F904F90089587E1482E85E7582EAC
:102AF000612C712C3FCFEEEBF1E0A2EFB1E0A7CF5C
:102B0000E1EDF2E0A4E1B2E0A2CFEBE7F3E0AFE366
:102B1000B2E09DCFEEEFF3E0A0E7B2E098CFECEFAC
:102B2000F1E0AFE6B1E093CFEBEFF0E0A2EDB0E083
:102B30008ECFE2E1F0E0A8E1B0E089CF812C912CCA
:102B400054019ACF60E070E081E090E0A2CFCF9393
:102B5000DF93EB01FC0183894BE050E066EC72E00F
:102B60008C30C1F058F44BE050E060EC72E08B30F8
:102B700089F04BE050E068ED72E00CC04BE050E0B3
:102B80006CEC72E0853131F04BE050E062ED72E0C8
:102B9000863179F7CE010E94E82A1B86DF91CF911A
:102BA00008950F931F93CF93DF938C01EB0188E27D
:102BB000DB011D928A95E9F7F801838194810E94D7
:102BC000A71581E090E0A0E0B0E08C879D87AE87FC
:102BD000BF87F80185819681A781B085888B998B05
:102BE000AA8BBB8B8CE090E0A0E0B0E08C8B9D8B3F
:102BF000AE8BBF8BBE01838194810E94DD07D8011B
:102C00001396ED91FC9183898C3009F441C078F4DE
:102C10008B3009F1188E198E1A8E1B8E1C8E1D8E0C
:102C20001E8E1F8E18A219A21AA21BA22CC085519B
:102C3000823080F780E090E0A8ECB2E4888F998F32
:102C4000AA8FBB8F1C8E1D8E1E8E1F8E8DEC9CEC52
:102C5000ACECBDE314C080E090E0A0EAB2E4888F61
:102C6000998FAA8FBB8F80E090E0A0EAB1E48C8FAF
:102C70009D8FAE8FBF8F80E090E0A0EAB0E488A384
:102C800099A3AAA3BBA3DF91CF911F910F910895A0
:102C900080E090E0AEEBB2E4E2CF0F931F93CF93CE
:102CA000DF938C01EB0188E2DB011D928A95E9F745
:102CB000F801838194810E94A71581E090E0A0E053
:102CC000B0E08C879D87AE87BF87F80185819681AC
:102CD000A781B085888B998BAA8BBB8B8DE090E008
:102CE000A0E0B0E08C8B9D8BAE8BBF8BBE0183814F
:102CF00094810E94DD07D8011396ED91FC918389A0
:102D00008C3091F178F48B30B1F0188E198E1A8EC8
:102D10001B8E1C8E1D8E1E8E1F8E18A219A21AA22B
:102D20001BA21DC08531A9F1863179F780E090E0C2
:102D3000AAEFB2E432C080E090E0A8E4B2E4888F69
:102D4000998FAA8FBB8F1C8E1D8E1E8E1F8E80E0CA
:102D500090E0A0E0B0E488A399A3AAA3BBA3DF916D
:102D6000CF911F910F91089580E090E0A0E7B2E429
:102D7000888F998FAA8FBB8F80E090E0A0EAB1EC9A
:102D80008C8F9D8FAE8FBF8F80E090E0A0E0BFE37F
:102D9000E2CF80E090E0A0EAB2E4888F998FAA8F1A
:102DA000BB8F80E090E0A0E2B2EC8C8F9D8FAE8F65
:102DB000BF8F8DEC9CECACECBDE3CDCF0F931F939C
:102DC000CF93DF938C01EB0188E2FB0111928A958E
:102DD000E9F74BE050E06DED72E0CE010E94E82A89
:102DE0001B8681E090E0A0E0B0E08C879D87AE87F5
:102DF000BF87F80184859585A685B785888B998BD3
:102E0000AA8BBB8B85E090E0A0E0B0E08C8B9D8B23
:102E1000AE8BBF8B1CA21DA21EA21FA280E090ED54
:102E2000A4E8B6E4888F998FAA8FBB8F80E090E0EA
:102E3000A0E8BFE38C8F9D8FAE8FBF8F88A399A32F
:102E4000AAA3BBA3DF91CF911F910F91089585EDA8
:102E50008093BC0080912E0590912F05A0913005A4
:102E6000B09131050796A11DB11D23E0B695A79538
:102E7000979587952A95D1F72091BC0024FD03C032
:102E800010922C05089540912E0550912F056091C8
:102E9000300570913105452B462B472B69F3009780
:102EA000A105B10541F025E32A95F1F7000001974E
:102EB000A109B109E1CF80912D050C9477090F93F9
:102EC0001F93CF93DF938B01EC012097E1F06E818C
:102ED0007F8160177107B9F00115110541F0611587
:102EE000710529F0C8010E94D82A892B61F08D81D3
:102EF000882339F028E08202C0011124C80FD91FAD
:102F0000E4CFD0E0C0E0CE01DF91CF911F910F91CF
:102F100008959F92AF92BF92CF92DF92EF92FF926D
:102F20000F931F93CF93DF93EC018B01E42E0E944C
:102F30005D0CF82E81110EC0F12C8F2DDF91CF91F9
:102F40001F910F91FF90EF90DF90CF90BF90AF90C7
:102F50009F900895CE010E94320C873209F415C16A
:102F600014F5823209F411C1CE010E94320CB82E40
:102F70006E01F1E1CF0ED11CE12C9C2CAD2C8B2DE0
:102F80000E941A0C882309F422C18FE3E81609F481
:102F90001EC11E86E394F601B1926F01CE010E941C
:102FA000320CB82EECCF8B3509F455C08B37E1F6D7
:102FB000F801848180788062848311821082138278
:102FC0001282EE2009F452C01E86CE010E945D0CD2
:102FD000882309F4B1CF6DE7CE010E944C0C81111A
:102FE000ACCFEA94E881F981828193819B838A83C3
:102FF0008481958122813381821B930B9F838E83F1
:103000001D821C82CE010E94320C873209F46EC0F0
:10301000823209F46BC0CE010E94320CD82E0E947D
:103020001A0C882309F45DC01E866D2DCE010E9406
:10303000830CCE010E94320CD82E0E941A0C8111F2
:10304000F3CF60E0CE010E94830C8A819B81892BA3
:1030500009F052C027C0F80184818078806484839D
:103060001182108213821282E11007C0CF5ADF4F03
:1030700086E090E0998388835FCF1E86CE010E9410
:103080005D0C882309F458CF6DE5CE010E944C0CED
:10309000811153CFEA946F857889C8010E946C0F23
:1030A000009729F4CF5ADF4F84E090E0E3CF4E2D14
:1030B000BC01CE010E948917882309F43DCFCE01BF
:1030C0000E945D0C882309F437CF6DE5CE010E9484
:1030D0004C0C811132CF6CE2CE010E944C0C81115C
:1030E000DACFCF5ADF4F83E090E0C4CFCE010E9409
:1030F000A10C882309F420CFCE010E945D0C882307
:1031000009F41ACF6AE3CE010E944C0C882349F3DC
:103110006A817B81F801808191810E945F17BC01E7
:10312000892B99F4CE010E94940D6C016F857889EA
:10313000C8010E946C0FFC01892B09F4B3CF848174
:1031400080688483D782C682BF014E2DCE010E9443
:103150008917882309F4F0CECE010E945D0C8823E4
:1031600009F4EACE6DE7CE010E944C0C8111E5CE48
:103170006CE2CE010E944C0C882309F4B2CFCE0140
:103180000E945D0C81112ECFD7CEE881F98182811A
:1031900093819B838A838481958122813381821BE1
:1031A000930B9F838E831D821C82CE010E94A10CF3
:1031B000F82E882309F4C0CECE010E94940DF801A8
:1031C000248120782560248391838083B6CEFE01FC
:1031D000EE0DF11D118A89898437B1F4F8018481DB
:1031E00080788660848381E090E0A0E0B0E0808316
:1031F0009183A283B383F4E0EF1609F49ECECF5AF5
:10320000DF4F82E090E036CF863659F4F8018481B2
:103210008078866084831082118212821382F5E0A6
:10322000EBCF8E3621F484E0E812E9CF86CEB801E8
:10323000892D9A2D0E94CE0D882309F452CF7DCE80
:10324000FC01248125FF04C0808191810C945F17CB
:1032500090E080E008951F920F920FB60F92112414
:103260000BB60F922F933F934F935F936F937F9380
:103270008F939F93AF93BF93EF93FF9382E395E078
:103280000E94A405FF91EF91BF91AF919F918F9103
:103290007F916F915F914F913F912F910F900BBE56
:1032A0000F900FBE0F901F9018951F920F920FB6A0
:1032B0000F9211240BB60F922F938F939F93EF933E
:1032C000FF93E0914205F09143058081E09148052C
:1032D000F091490582FD1DC0908180914B058F5F63
:1032E0008F7320914C05821741F0E0914B05F0E07F
:1032F000EE5CFA4F958F80934B05FF91EF919F9174
:103300008F912F910F900BBE0F900FBE0F901F90BB
:1033100018958081F2CF1F920F920FB60F92112451
:103320002F933F938F939F93AF93BF938091C1044B
:103330009091C204A091C304B091C4043091C00420
:1033400023E0230F2D3758F50196A11DB11D2093C1
:10335000C0048093C1049093C204A093C304B093AB
:10336000C4048091C5049091C604A091C704B09193
:10337000C8040196A11DB11D8093C5049093C60495
:10338000A093C704B093C804BF91AF919F918F9150
:103390003F912F910F900FBE0F901F90189526E828
:1033A000230F0296A11DB11DD2CF1F920F920FB60F
:1033B0000F9211240BB60F922F933F934F935F936D
:1033C0006F937F938F939F93AF93BF93EF93FF93ED
:1033D000E0910E02F0910F021995FF91EF91BF91CC
:1033E000AF919F918F917F916F915F914F913F919D
:1033F0002F910F900BBE0F900FBE0F901F9018953E
:103400001F920F920FB60F9211240BB60F922F93AB
:103410003F934F935F936F937F938F939F93AF935C
:10342000BF93EF93FF93E0910C02F0910D02199579
:10343000FF91EF91BF91AF919F918F917F916F918C
:103440005F914F913F912F910F900BBE0F900FBE48
:103450000F901F9018951F920F920FB60F92112484
:103460000BB60F922F933F934F935F936F937F937E
:103470008F939F93AF93BF93EF93FF93E0910202DB
:10348000F09103021995FF91EF91BF91AF919F9138
:103490008F917F916F915F914F913F912F910F90FD
:1034A0000BBE0F900FBE0F901F9018951F920F929A
:1034B0000FB60F9211240BB60F922F933F934F9399
:1034C0005F936F937F938F939F93AF93BF93EF938C
:1034D000FF93E0910002F09101021995FF91EF91A5
:1034E000BF91AF919F918F917F916F915F914F911C
:1034F0003F912F910F900BBE0F900FBE0F901F901A
:1035000018951F920F920FB60F9211240BB60F92BF
:103510002F933F934F935F936F937F938F939F93DB
:10352000AF93BF93EF93FF93E0910A02F0910B02E8
:103530001995FF91EF91BF91AF919F918F917F91DD
:103540006F915F914F913F912F910F900BBE0F9014
:103550000FBE0F901F9018951F920F920FB60F92EB
:1035600011240BB60F922F933F934F935F936F935A
:103570007F938F939F93AF93BF93EF93FF93E091CC
:103580000802F09109021995FF91EF91BF91AF9157
:103590009F918F917F916F915F914F913F912F916B
:1035A0000F900BBE0F900FBE0F901F9018951F929B
:1035B0000F920FB60F9211240BB60F922F933F93D9
:1035C0004F935F936F937F938F939F93AF93BF932B
:1035D000EF93FF93E0910602F09107021995FF9196
:1035E000EF91BF91AF919F918F917F916F915F917B
:1035F0004F913F912F910F900BBE0F900FBE0F90E8
:103600001F9018951F920F920FB60F9211240BB6B0
:103610000F922F933F934F935F936F937F938F936B
:103620009F93AF93BF93EF93FF93E0910402F091C8
:1036300005021995FF91EF91BF91AF919F918F91E5
:103640007F916F915F914F913F912F910F900BBEA2
:103650000F900FBE0F901F9018951F920F920FB6EC
:103660000F9211240BB60F922F933F934F935F93BA
:103670006F937F938F939F93AF93BF93EF93FF933A
:10368000F0E0E0E01995FF91EF91BF91AF919F912C
:103690008F917F916F915F914F913F912F910F90FB
:1036A0000BBE0F900FBE0F901F9018951F920F9298
:1036B0000FB60F9211240BB60F922F933F934F9397
:1036C0005F936F937F938F939F93AF93BF93EF938A
:1036D000FF938091B900887F803609F44DC008F0CF
:1036E00040C0883209F4A9C028F5803109F49DC092
:1036F000C8F4882309F4FBC0883009F496C0FF9110
:10370000EF91BF91AF919F918F917F916F915F9159
:103710004F913F912F910F900BBE0F900FBE0F90C6
:103720001F901895883109F488C0803241F7809342
:103730000A0514C0803409F49DC040F48033B9F305
:103740008833E9F680930A0585ECB0C0803509F42A
:1037500085C0883509F496C0883489F60E942717F9
:10376000CECF883909F48CC038F5883729F050F469
:10377000883611F0803719F683E080932C0510927B
:10378000BD0457C0883809F47BC0803919F08038EF
:1037900009F0B5CF8091BD04803208F071C0E0918E
:1037A000BD0481E08E0F8093BD048091BB00F0E0EA
:1037B000E356FB4F80833DC0803B39F0E0F4803A14
:1037C00009F479C0883A09F09ACF84E080932C05F7
:1037D00010929C0410929B04E091CB04F091CC04D5
:1037E000199580919B0481110FC081E080939B0407
:1037F00010927B0409C0803C09F4A6CF883C09F4F0
:10380000A3CF883B09F07BCFE0919C0481E08E0F31
:1038100080939C04F0E0E558FB4F80818093BB00CF
:1038200090919C0480919B0429C08091070580930E
:10383000BB0085EC8093BC0062CF9091090580911C
:103840000805981758F5E091090581E08E0F8093DF
:103850000905F0E0EA51FB4F8081E9CFE0910905CD
:1038600081E08E0F809309058091BB00F0E0EA5162
:10387000FB4F808390910905809108059817C8F245
:1038800085E8D8CFE091090581E08E0F8093090586
:103890008091BB00F0E0EA51FB4F808380910B05E3
:1038A00081115CCF81E08093060584EA8093BC009F
:1038B00010922C0524CF85EC8093BC0010922C052F
:1038C0008091BD04803230F4E091BD04F0E0E35615
:1038D000FB4F10826091BD0470E0E091C904F0914B
:1038E000CA048DE994E019951092BD0408CF109296
:1038F0000A0534CFCF93DF93E2E3F5E0138212821F
:1039000088EE93E0A0E0B0E084839583A683B7833C
:1039100024E732E03183208325EC30E035872487AB
:1039200024EC30E03787268720EC30E0318B208B89
:1039300021EC30E0338B228B22EC30E0358B248B72
:1039400026EC30E0378B268B118E128E138E148E60
:10395000EFECF5E01382128284839583A683B7830C
:1039600086E892E091838083E1E6F6E0138212829A
:1039700088E992E09183808387E2848380E1808775
:1039800082E08187128688E08387EDE1F6E08AE0B5
:1039900090E097A786A784E190E091AB80AB8EE1A1
:1039A00090E093AB82AB88E290E095AB84AB82E38E
:1039B00090E097AB86AB8CE390E091AF80AF12AE16
:1039C00013AE14AE15AE10925B0610925C06109208
:1039D0005D0610925E061092600610925F06CBEDB7
:1039E000D5E0188219821A821B82EFEDF5E088E19A
:1039F000DF011D928A95E9F788E1EAE1F2E0A7EF9D
:103A0000B5E001900D928A95E1F786E0E2E3F2E0FD
:103A1000AFE0B6E001900D928A95E1F70E949E0713
:103A20006AAF7BAF8CAF9DAF0E949E076093190673
:103A300070931A0680931B0690931C06DF91CF911A
:103A40000895CF93DF93CDB7DEB7C85CD1090FB629
:103A5000F894DEBF0FBECDBF789484B5826084BD7C
:103A600084B5816084BD85B5826085BD85B5816082
:103A700085BD80916E00816080936E001092810000
:103A800080918100826080938100809181008160BB
:103A9000809381008091800081608093800080917C
:103AA000B10084608093B1008091B0008160809308
:103AB000B00080919100826080939100809191008C
:103AC000816080939100809190008160809390004C
:103AD0008091A10082608093A1008091A10081600B
:103AE0008093A1008091A00081608093A0008091CC
:103AF0002101826080932101809121018160809366
:103B000021018091200181608093200180917A00C1
:103B1000846080937A0080917A00826080937A003A
:103B200080917A00816080937A0080917A00806829
:103B300080937A001092C100E0914205F091430514
:103B400082E08083E0913E05F0913F051082E09194
:103B50004005F091410580E1808310924A05E09193
:103B60004605F091470586E08083E0914405F09199
:103B70004505808180618083E0914405F091450591
:103B8000808188608083E0914405F09145058081C3
:103B900080688083E0914405F091450580818F7DA8
:103BA000808389E198E00E94AE0F1092D0041092B9
:103BB000CF041092CE041092CD040E9459098EE2D7
:103BC00095E09093CC048093CB048FE295E09093A2
:103BD000CA048093C9041092660680916A068230F6
:103BE00018F098E09093660690916B06992339F04F
:103BF000813029F48091660684608093660662E3D2
:103C000070E080E090E00E946C0760916C0681E6B5
:103C100096E00E94010C68EE73E080E090E00E9464
:103C20006C0760E381E696E00E9442120BE416E422
:103C3000C8010197F1F760E381E696E00E94421225
:103C4000C8010197F1F760E381E696E00E94421215
:103C500083E592E00197F1F760E281E696E00E9449
:103C6000421260916606606240E081E696E00E9442
:103C70005B1284E08093670640E06CE081E696E0AA
:103C80000E945B1240E061E081E696E00E945B12D8
:103C90000BE31FE1C8010197F1F782E0809368060A
:103CA00040E066E081E696E00E945B1240E062E060
:103CB00081E696E00E945B12C8010197F1F760E08F
:103CC0008BE00E940B0760E088E30E940B0760E036
:103CD00089E30E940B0760E082E00E940B0786E206
:103CE00090E00E94C928DC018BE015968C93159713
:103CF00086E116968C931697E8E1F9E0E491179621
:103D0000EC931797E2EDF8E0E4911896EC9318978E
:103D100040E85EE360E070E01D964D935D936D9327
:103D20007C93509753968C93539788E592E05596E1
:103D30009C938E9354970A2E1B2E58961C920E928B
:103D4000112457974FEF5FEFBA0159964D935D934A
:103D50006D937C935C978AE492E05E969C938E933D
:103D60005D970A2E1B2E91961C920E92112490970D
:103D700092964D935D936D937C939597B0931E06A9
:103D8000A0931D0682E190E00E94C9288C0141E2C7
:103D900060E20E94DE041093200600931F0682E179
:103DA00090E00E94C9288C0143E064E00E94DE0498
:103DB000109322060093210682E190E00E94C92818
:103DC0008C014CE066E00E94DE0410932406009310
:103DD000230680E190E00E94C928FC018CE392E078
:103DE0009183808389E385831682178211861086EA
:103DF0001386128689E390E0A0E0B0E0848795877F
:103E0000A687B787F0932606E0932506CF010E9488
:103E1000A611811104C080EF92E00E94A10F809151
:103E2000250690912606DC01ED91FC910084F18538
:103E3000E02DBE01615A7F4F199584E196E00E9402
:103E4000AE0F86EF95E00E94AE0F80EE95E00E94E7
:103E50001306CE01815A9F4F0E9400108AEC95E014
:103E60000E941306AF966CAD7DAD8EAD9FADAF9742
:103E70000E94FD1084EB95E00E941306E3966CAD62
:103E80007DAD8EAD9FADE3970E94FD108EE995E06C
:103E90000E941306EB966CAD7DAD8EAD9FADEB979A
:103EA00042E00E9412108EE293E00E94001088E827
:103EB00095E00E941306EF966CAD7DAD8EAD9FAD83
:103EC000EF9742E00E9412108EE293E00E940010F1
:103ED00082E795E00E941306C158DF4F688179811F
:103EE0008A819B81CF57D04042E00E9412108EE21F
:103EF00093E00E94001086E495E00E94AE0F64EF0C
:103F000071E080E090E00E946C078091250690911E
:103F10002606DC01ED91FC910480F581E02D61E045
:103F2000199570E060E080912506909126060E9428
:103F3000211200911D0610911E0662E0F801858194
:103F40000E940B070E949E07605D774081099109DE
:103F5000D80119966D937D938D939C931C9787E35D
:103F600052968C93E0911D06F0911E068689CC54E2
:103F7000DF4F8883C45BD04008E512E0CE54DF4FAA
:103F800019830883C25BD0408789908DCB54DF4F63
:103F900099838883C55BD040818D928DA38DB48D2C
:103FA000C954DF4F88839983AA83BB83C75BD04002
:103FB000FE0131967F01BF01CE018E549F4F0E94BA
:103FC0004D168CE295E00E94AE0F87E195E00E94CD
:103FD0001306C7010E94001082E095E00E941306BC
:103FE0006D857E858F8598890E94FD108DEE94E009
:103FF0000E94130669897A898B899C890E94FD1029
:1040000088ED94E00E941306698D7A8D8B8D9C8DCE
:1040100042E00E94121084ED94E00E94AE0F8FEBFC
:1040200094E00E9413066D8D7E8D8F8D98A142E0E5
:104030000E9412108BEB94E00E94AE0F86EA94E08F
:104040000E94130669A17AA18BA19CA142E00E9463
:10405000121082EA94E00E94AE0F86E794E00E947C
:10406000AE0FE0911D06F0911E06878DCC54DF4FF8
:104070008883C45BD0408AE492E0CE54DF4F9983BA
:104080008883C25BD04080A191A1CB54DF4F99833C
:104090008883C55BD04082A193A1A4A1B5A1C954D6
:1040A000DF4F88839983AA83BB83C75BD040B70166
:1040B000CE018E549F4F0E94D1158FE594E00E944F
:1040C000AE0F8AE494E00E941306C7010E9400101C
:1040D00085E394E00E9413066D857E858F8598891F
:1040E0000E94FD1080E294E00E94130669897A899B
:1040F0008B899C890E94FD108BE094E00E9413063E
:10410000698D7A8D8B8D9C8D42E00E94121089E022
:1041100094E00E94AE0F84EF93E00E9413066D8D31
:104120007E8D8F8D98A142E00E94121082EF93E065
:104130000E94AE0F8DED93E00E94130669A17AA153
:104140008BA19CA142E00E9412108BED93E00E9493
:10415000AE0F8FEA93E00E94AE0F84E993E00E94D5
:10416000AE0FE0911D06F0911E068689CC54DF4FFC
:104170008883C45BD040CE54DF4F19830883C25B71
:10418000D0408789908DCB54DF4F99838883C55B5E
:10419000D040818D928DA38DB48DC954DF4F88831B
:1041A0009983AA83BB83C75BD04067E276E0CE01E8
:1041B0008E549F4F0E94261360913B0670913C06DF
:1041C00080913D0690913E069B01AC010E94BC2867
:1041D000882309F474C18BE693E00E94AE0FE0914E
:1041E0001D06F0911E06878DCC54DF4F8883C45B7B
:1041F000D0408AE492E0CE54DF4F99838883C25B3B
:10420000D04080A191A1CB54DF4F99838883C55BB7
:10421000D04082A193A1A4A1B5A1C954DF4F888346
:104220009983AA83BB83C75BD04067E276E0CE0167
:104230008E549F4F0E94A61260913B0670913C06DF
:1042400080913D0690913E069B01AC010E94BC28E6
:10425000811138C182E293E00E94AE0F8091250661
:1042600090912606DC01ED91FC910680F781E02D0E
:1042700067E276E0199520E030E040E857E460918D
:104280003B0670913C0680913D0690913E060E944F
:10429000B72887FD1AC18DEC92E00E94AE0F009105
:1042A0001F0610912006D8011A96ED91FC911B97DC
:1042B000808114969C911497892B80831696ED919A
:1042C000FC911797908114968C911497809589236F
:1042D00080838BE090E00197F1F71696ED91FC91C9
:1042E0001797808114969C911497892B808383E281
:1042F00090E00197F1F71696ED91FC911797908158
:1043000014968C9114978095892380831A96ED9149
:10431000FC911B97908114968C911497809589231A
:1043200080831896ED91FC911997808115969C9148
:10433000892309F4CDC090E080E0BC0190E080E0EA
:1043400029E330E040E050E00E947827CA01B9013B
:104350000E94272620E030E0A9010E942226811138
:104360001DC187E792E00E94AE0F84E292E00E94B6
:10437000AE0F61E085E00E940B0761E08DE00E94D6
:104380000B0761E087E00E940B0761E088E00E9474
:104390000B0761E089E00E940B0761E08AE00E9460
:1043A0000B078CE796E00E94AE0F812C912C5401F4
:1043B0006E01FFE0CF0ED11C0E949E072B013C0135
:1043C000DC01CB0188199909AA09BB0981319742FF
:1043D000A105B10530F08BE596E00E94AE0F5301C8
:1043E000420182E395E00E948E051816190624F713
:1043F000CD53DF4F19821882C35CD040CB53DF4FBF
:1044000019821882C55CD040C953DF4F19821882C7
:10441000C75CD04070E060E0CE018D539F4F0E949A
:104420007E12CD53DF4F28813981C35CD04081118A
:10443000B8C02115310519F0C9010E946529CD5375
:10444000DF4F19821882C35CD040C953DF4F1982F5
:104450001882C75CD040CB53DF4F19821882C55CED
:10446000D0400E94AA07C953DF4F08811981C75C59
:10447000D04097FDA2C089831A820F5F1F4FB801F9
:10448000CE018D539F4F0E947E12882351F3CD534E
:10449000DF4F28813981C35CD040C953DF4F888109
:1044A0009981C75CD040B701820F931F0E94E12A17
:1044B000C953DF4F19830883C75CD040D2CF85E44E
:1044C00093E08BCE8CEF92E0C7CE81EA92E0E5CE0E
:1044D0000E944707AB01BC01F80184859585B0E0D7
:1044E000A0E08855994EAF4FBF4F840F951FA61F70
:1044F000B71F86879787A08BB18BD8011896ED914F
:10450000FC911997808115969C91892369F40E94EA
:104510004707F80186849784A088B1888616970695
:10452000A806B90650F707CF0E944707D8011C9686
:104530002D913C91620F731F811D911DF8016687BB
:104540007787808B918BD8011896ED91FC91199704
:10455000808115969C91892369F00E944707F80194
:1045600086849784A088B18886169706A806B9061F
:1045700050F7E1CE0E944707D8011C962D913C913F
:104580001D97A901455051091E962D913C91FA01A4
:10459000E21BF30BCF01860F971FCFCE80E592E091
:1045A000E2CEC953DF4F19821882C75CD04060EB5E
:1045B00072E0C9010E94E12A54CFDA82C982DC820A
:1045C000CB828FE590E08C0F9D1F9E838D83988713
:1045D0008F8319869E8590789E87CD53DF4F888183
:1045E0009981C35CD040C554DF4FF982E882CB5B30
:1045F000D04028E0FE01E554FF4FDE01AE54BF4F2E
:1046000001900D922A95E1F728E0FE01EE54FF4F4C
:10461000DE01A15ABF4F01900D922A95E1F7A896AD
:104620001FAEA897AA969FAF8EAFAA97800F911F33
:10463000AC969FAF8EAFAC97AE961FAEAE97E0969E
:10464000FFAEEEAEE097C055DF4F19821882C05B17
:10465000D0404AE0BE01665F7F4FCE01815A9F4F36
:104660000E948917C055DF4F08811981C05BD04077
:104670000115110569F4AD968FADAD97882309F446
:1046800041C08E85982F9F779C30C9F503E010E0DC
:1046900080E496E00E941306000F111FF801EE5906
:1046A000FD4F808191810E94001083E393E00E947E
:1046B000A10FC953DF4F48815981C75CD040CD530A
:1046C000DF4F68817981C35CD04082E395E00E942E
:1046D000300581EB92E00E94A10F68EE73E080E06C
:1046E00090E00E946C07CD53DF4F88819981C35CB5
:1046F000D040009709F460CE0E9465295DCE8D7789
:10470000883021F265E773E0CE010A960E942019F5
:10471000892B49F36AE473E0CE010A960E942019BE
:10472000892B09F36AE573E0CE010A960E942019ED
:10473000892BC9F268E673E0CE010A960E9420191F
:10474000892B89F265E773E0CE010A960E94201951
:10475000412C512C3201009721F00E942B0F2B018C
:104760003C016AE473E0CE010A960E942019812C74
:10477000912C5401009721F00E942B0F4B015C01FA
:104780006AE573E0CE010A960E942019C12CD12C53
:104790007601009721F00E942B0F6B017C0168E6E7
:1047A00073E0CE010A960E942019FC01892B91F03A
:1047B00094819F77983029F078F4992359F09630B6
:1047C00079F411E080819181A281B381892B8A2BB8
:1047D0008B2BA1F410E012C09A3099F39C3011F0A9
:1047E00011E00CC011E020E030E0A901608171818E
:1047F000828193810E942226882361F320E030E0A9
:1048000040E651E4C301B2010E94B728181694F0A3
:1048100020E030E040E85FE3C301B2010E942226BD
:1048200087FD08C04092D1045092D2046092D30414
:104830007092D40420E030E44CE956E4C501B401A0
:104840000E94B72818168CF020E030E0A901C501BD
:10485000B4010E94222687FD08C08092D504909260
:10486000D604A092D704B092D80420E030E040E211
:1048700051E4C701B6010E94B72818168CF020E059
:1048800030E0A901C701B6010E94222687FD08C0B9
:10489000C092D904D092DA04E092DB04F092DC04F6
:1048A0001093DD0488E793E00E94001088EA93E00B
:1048B0000E94A10FC301B2010E94EE1089EB93E0A8
:1048C0000E94A10FC501B4010E94EE1085ED93E096
:1048D0000E94A10FC701B6010E94EE1080EF93E085
:1048E0000E94A10F85EE92E0111102C08AEE92E0C3
:1048F0000E940010CD53DF4F88819981C35CD04066
:10490000009711F00E94652981EC97E00E94AE0F9C
:1049100083E797E00E94AE0F88E297E00E94AE0F17
:1049200084EE96E00E94AE0F8DE996E00E94AE0FF5
:104930000E944707611571058105910511F00E94DC
:10494000192660ED77E080E090E00E946C0783E23A
:1049500095E0909301028093000280916A008C7F21
:10496000826080936A00EC9A80E4C82E88E0D82E9A
:1049700004E610E094E6F92E61E08DE00E940B075A
:10498000F6018491EFEFE80FE23108F0B2C0F0E0F9
:104990008827E253FB4D8F4F0C94C128E024E72475
:1049A000EC24F624002579250A2512251A2524252C
:1049B0002E2538254725512579255B2565256F2529
:1049C00084B5806884BDF7BC0E944E06D5CF84B5FF
:1049D000806284BDF8BCF8CF8091800080688093AD
:1049E00080001093890000938800EECF80918000B2
:1049F00080628093800010938B0000938A00E4CF44
:104A00008091800088608093800010938D000093D7
:104A10008C00DACF8091B00080688093B000F09273
:104A2000B300D2CF8091B00080628093B000F0924A
:104A3000B400CACF8091900080688093900010935A
:104A4000990000939800C0CF80919000806280937D
:104A5000900010939B0000939A00B6CF8091900035
:104A600088608093900010939D0000939C00ACCFD1
:104A70008091A00080688093A0008091A0008F7B2F
:104A80008093A0001093A9000093A8009DCF80916F
:104A9000A00080628093A0001093AB000093AA0056
:104AA00093CF8091A00088608093A0001093AD0008
:104AB0000093AC0089CF8091200180688093200111
:104AC00010932901009328017FCF809120018062FB
:104AD0008093200110932B0100932A0175CF8091C0
:104AE000200188608093200110932D0100932C01F8
:104AF0006BCF60E08DE00E947F0666CF8F929F9221
:104B0000AF92BF92CF92DF92EF92FF92CF93DF935B
:104B1000EC01688179818A819B816115710581052C
:104B2000910521F464E279ED8BE597E02DE133EF17
:104B300041E050E00E94462749015A019B01AC0127
:104B4000A7EAB1E40E9465276B017C01ACEEB4EFEB
:104B5000A50194010E947327C60ED71EE81EF91EF8
:104B6000F7FE06C081E0C81AD108E10880E8F80A1B
:104B7000C882D982EA82FB82C701B6019F77DF91A2
:104B8000CF91FF90EF90DF90CF90BF90AF909F902C
:104B90008F9008958F929F92AF92BF92CF92DF92A3
:104BA000EF92FF92609110027091110280911202B7
:104BB00090911302611571058105910521F464E25C
:104BC00079ED8BE597E02DE133EF41E050E00E9475
:104BD000462749015A019B01AC01A7EAB1E40E94B2
:104BE00065276B017C01ACEEB4EFA50194010E9436
:104BF0007327C60ED71EE81EF91EF7FE06C081E019
:104C0000C81AD108E10880E8F80AC0921002D092D0
:104C10001102E0921202F0921302C701B6019F77CF
:104C2000FF90EF90DF90CF90BF90AF909F908F90CC
:104C30000895609310027093110280931202909372
:104C4000130208950E94642608F481E00895E89410
:104C500009C097FB3EF490958095709561957F4FC4
:104C60008F4F9F4F9923A9F0F92F96E9BB27939572
:104C7000F695879577956795B795F111F8CFFAF482
:104C8000BB0F11F460FF1BC06F5F7F4F8F4F9F4FB3
:104C900016C0882311F096E911C0772321F09EE811
:104CA000872F762F05C0662371F096E8862F70E077
:104CB00060E02AF09A95660F771F881FDAF7880F51
:104CC0009695879597F90895990F0008550FAA0BA7
:104CD000E0E8FEEF16161706E807F907C0F012160F
:104CE0001306E407F50798F0621B730B840B950B12
:104CF00039F40A2661F0232B242B252B21F4089567
:104D00000A2609F4A140A6958FEF811D811D089503
:104D10000E949B260C940C270E94FE2638F00E94CD
:104D2000052720F0952311F00C94F5260C94FB2612
:104D300011240C9440270E941D2770F3959FC1F306
:104D4000950F50E0551F629FF001729FBB27F00D39
:104D5000B11D639FAA27F00DB11DAA1F649F66278E
:104D6000B00DA11D661F829F2227B00DA11D621FDD
:104D7000739FB00DA11D621F839FA00D611D221F97
:104D8000749F3327A00D611D231F849F600D211D7B
:104D9000822F762F6A2F11249F5750409AF0F1F0FE
:104DA00088234AF0EE0FFF1FBB1F661F771F881F67
:104DB00091505040A9F79E3F510580F00C94F52684
:104DC0000C9440275F3FE4F3983ED4F386957795A3
:104DD0006795B795F795E7959F5FC1F7FE2B880F0D
:104DE000911D9695879597F9089597F99F6780E8A3
:104DF00070E060E008959FEF80EC089500240A942D
:104E00001616170618060906089500240A941216A5
:104E10001306140605060895092E0394000C11F4D8
:104E2000882352F0BB0F40F4BF2B11F460FF04C085
:104E30006F5F7F4F8F4F9F4F089557FD9058440FDE
:104E4000551F59F05F3F71F04795880F97FB991FE9
:104E500061F09F3F79F087950895121613061406A6
:104E6000551FF2CF4695F1DF08C016161706180633
:104E7000991FF1CF86957105610508940895E8940E
:104E8000BB2766277727CB0197F90895052E97FB57
:104E90001EF400940E945D2757FD07D00E947827DA
:104EA00007FC03D04EF40C945D2750954095309547
:104EB00021953F4F4F4F5F4F089590958095709586
:104EC00061957F4F8F4F9F4F08950E949A27A59F0E
:104ED000900DB49F900DA49F800D911D11240895F5
:104EE000B7FF0C9465270E946527821B930B0895DA
:104EF000A1E21A2EAA1BBB1BFD010DC0AA1FBB1FDE
:104F0000EE1FFF1FA217B307E407F50720F0A21B4F
:104F1000B30BE40BF50B661F771F881F991F1A94BC
:104F200069F760957095809590959B01AC01BD01E6
:104F3000CF010895A29FB001B39FC001A39F700D40
:104F4000811D1124911DB29F700D811D1124911D91
:104F500008955058BB27AA270E94C1270C940C27FC
:104F60000E94FE2638F00E94052720F039F49F3F6A
:104F700019F426F40C94FB260EF4E095E7FB0C9450
:104F8000F526E92F0E941D2758F3BA176207730709
:104F90008407950720F079F4A6F50C943F270EF4CA
:104FA000E0950B2EBA2FA02D0B01B90190010C0139
:104FB000CA01A0011124FF27591B99F0593F50F451
:104FC000503E68F11A16F040A22F232F342F4427A9
:104FD000585FF3CF469537952795A795F0405395A1
:104FE000C9F77EF41F16BA0B620B730B840BBAF071
:104FF0009150A1F0FF0FBB1F661F771F881FC2F7DC
:105000000EC0BA0F621F731F841F48F487957795EF
:105010006795B795F7959E3F08F0B0CF9395880FA9
:1050200008F09927EE0F9795879508950E942A28F2
:105030000C940C270E94052758F00E94FE2640F091
:1050400029F45F3F29F00C94F52651110C94402768
:105050000C94FB260E941D2768F39923B1F3552376
:1050600091F3951B550BBB27AA276217730784077B
:1050700038F09F5F5F4F220F331F441FAA1FA9F311
:1050800035D00E2E3AF0E0E832D091505040E695FF
:10509000001CCAF72BD0FE2F29D0660F771F881F60
:1050A000BB1F261737074807AB07B0E809F0BB0B53
:1050B000802DBF01FF2793585F4F3AF09E3F510567
:1050C00078F00C94F5260C9440275F3FE4F3983E6B
:1050D000D4F3869577956795B795F7959F5FC9F750
:1050E000880F911D9695879597F90895E1E0660FD1
:1050F000771F881FBB1F621773078407BA0720F04A
:10510000621B730B840BBA0BEE1F88F7E0950895B2
:105110000E94252788F09F5798F0B92F9927B751FB
:10512000B0F0E1F0660F771F881F991F1AF0BA954B
:10513000C9F714C0B13091F00E943F27B1E0089543
:105140000C943F27672F782F8827B85F39F0B93F35
:10515000CCF3869577956795B395D9F73EF49095FE
:105160008095709561957F4F8F4F9F4F08950E9456
:10517000642608F48FEF08950E946426880B990B2B
:105180000895EE0FFF1F881F8BBF0790F691E02D4B
:1051900019940F931F93CF93DF938230910510F4EE
:1051A00082E090E0E0916F06F091700630E020E040
:1051B000B0E0A0E0309799F42115310509F44AC018
:1051C000281B390B24303105D8F58A819B81611564
:1051D000710589F1FB0193838283FE0111C0408137
:1051E00051810281138148175907E0F04817590788
:1051F00099F4109761F012960C93129713961C93E2
:105200003296CF01DF91CF911F910F9108950093B6
:105210006F0610937006F4CF2115310551F0421737
:10522000530738F0A901DB019A01BD01DF01F80144
:10523000C1CFEF01F9CF9093700680936F06CDCF69
:10524000FE01E20FF31F81939193225031093983BC
:105250002883D7CF20916D0630916E06232B41F421
:10526000209116023091170230936E0620936D063E
:1052700020911402309115022115310541F42DB70A
:105280003EB74091180250911902241B350BE09152
:105290006D06F0916E06E217F307A0F42E1B3F0B8C
:1052A0002817390778F0AC014E5F5F4F2417350798
:1052B00048F04E0F5F1F50936E0640936D0681932A
:1052C00091939FCFF0E0E0E09CCFCF93DF930097E6
:1052D000E9F0FC01329713821282A0916F06B0911F
:1052E0007006ED0130E020E01097A1F420813181BB
:1052F000820F931F20916D0630916E062817390793
:1053000009F061C0F0936E06E0936D06DF91CF91D6
:105310000895EA01CE17DF07E8F54A815B819E0117
:1053200041155105B1F7E901FB83EA834991599190
:10533000C40FD51FEC17FD0761F48081918102969F
:10534000840F951FE90199838883828193819B83D0
:105350008A83F0E0E0E012968D919C91139700977C
:10536000B9F52D913C911197CD010296820F931FB3
:1053700020916D0630916E062817390739F630975F
:1053800051F51092700610926F06B0936E06A093BE
:105390006D06BCCFD383C28340815181840F951F9A
:1053A000C817D90761F44E5F5F4F88819981480F14
:1053B000591F518340838A819B8193838283211566
:1053C000310509F0B0CFF0937006E0936F069ECFE1
:1053D000FD01DC01C0CF13821282D7CF4F925F92C2
:1053E0006F927F928F929F92AF92BF92CF92DF92F5
:1053F000EF92FF920F931F93CF93DF938C0100974F
:1054000099F4CB01DF91CF911F910F91FF90EF9015
:10541000DF90CF90BF90AF909F908F907F906F90D4
:105420005F904F900C94C928FC01E60FF71F9C0178
:1054300022503109E217F30708F4AEC0D901CD912B
:10544000DC911197C617D70720F1C530D10578F048
:10545000CE0104978617970750F0C61BD70B2297EB
:10546000C193D1936D937C93CF010E946529C801AC
:10547000DF91CF911F910F91FF90EF90DF90CF9030
:10548000BF90AF909F908F907F906F905F904F9064
:1054900008955B01AC1ABD0A4C018C0E9D1EA091B3
:1054A0006F06B0917006512C412CF12CE12C109715
:1054B00031F580916D0690916E068815990509F079
:1054C0005CC04616570608F058C0809114029091AF
:1054D0001502009741F48DB79EB740911802509184
:1054E0001902841B950BE817F90708F055C0F093D3
:1054F0006E06E0936D06F90171836083B8CF8D91DC
:105500009C91119712966C90129713967C9013971A
:10551000A815B90559F56C0142E0C40ED11CCA1496
:10552000DB0420F1AC014A195B09DA0112961597E8
:1055300080F06282738251834083D9016D937C93A2
:10554000E114F10471F0D7011396FC93EE931297D6
:105550008ECF22968C0F9D1FF90191838083F301DA
:10556000EFCFF0937006E0936F0681CF481659068F
:1055700008F42C017D01D3019ACFCB010E94C928E8
:105580007C01009749F0AE01B8010E94CF2AC80102
:105590000E94652987016BCF10E000E068CFFB0116
:1055A000DC0102C001900D9241505040D8F708959F
:1055B000FB01DC018D91019080190110D9F3990B49
:1055C0000895FB01DC0101900D920020E1F70895A0
:1055D000FB01DC014150504048F001900D92002049
:1055E000C9F701C01D9241505040E0F70895F8946A
:0255F000FFCFEB
:1055F200DC07DC07DC07DC07DC07DC07DC07DC0791
:1056020001000000000071068000D0070000E803DE
:105612000000E8030000E093FFFFE093FFFF280093
:105622000000010000000001000000002E097812B5
:105632002F09D913DE1600000000190C7A12820C11
:10564200A612D11500000000190C7C12820C261340
:105652004D160A040D041804280435043E044B04B4
:1056620000000000C60530055D052E068E056C059E
:10567200800500000000BE0A910A160C670A8A0A19
:10568200770A680A0000000072123005160C2D0518
:105692002F2F22225C5C6208660C6E0A720D74095E
:1056A200000D0A006E616E00696E66006F7666001C
:1056B2004448543131004448543132004448543251
:1056C20031004448543232004448543F0054534C51
:1056D2003235363100747275650066616C7365002F
:1056E2004F6F6F70732C206E6F2054534C323536CF
:1056F20031206465746563746564202E2E2E204308
:105702006865636B20796F757220776972696E675D
:10571200206F722049324320414444522100206CC0
:105722007578005B494E464F5D2052656365697628
:105732006564204A534F4E3A20006C696768745F73
:10574200696E74656E73697479006E7574726965D9
:105752006E745F666C6F770067726F7774685F6CE8
:1057620069676874007068005B494E464F5D20525D
:10577200656365697665642073657474696E6773C1
:105782002066726F6D207468652052617370626565
:1057920072727920506921005B494E464F5D202D7F
:1057A2002070480909203A20005B494E464F5D208F
:1057B2002D206C6967687420696E74656E736974F4
:1057C20079203A20005B494E464F5D202D206E75B0
:1057D200747269656E7420666C6F7709203A2000D6
:1057E2005B494E464F5D202D2067726F77746820AB
:1057F2006C6967687409203A20004F6B00456D7030
:105802007479496E70757400496E636F6D706C6562
:105812007465496E70757400496E76616C6964498D
:105822006E707574004E6F4D656D6F7279004E6FBC
:1058320074537570706F7274656400546F6F446551
:04584200657000008D
:00000001FF
